{
  "contractName": "Adoption",
  "abi": [
    {
      "constant": true,
      "inputs": [
        {
          "internalType": "uint256",
          "name": "",
          "type": "uint256"
        }
      ],
      "name": "adopters",
      "outputs": [
        {
          "internalType": "address",
          "name": "",
          "type": "address"
        }
      ],
      "payable": false,
      "stateMutability": "view",
      "type": "function"
    },
    {
      "constant": true,
      "inputs": [
        {
          "internalType": "uint256",
          "name": "",
          "type": "uint256"
        }
      ],
      "name": "artworks",
      "outputs": [
        {
          "internalType": "uint256",
          "name": "id",
          "type": "uint256"
        },
        {
          "internalType": "string",
          "name": "name",
          "type": "string"
        },
        {
          "internalType": "string",
          "name": "url",
          "type": "string"
        },
        {
          "internalType": "bool",
          "name": "onSale",
          "type": "bool"
        },
        {
          "internalType": "uint256",
          "name": "price",
          "type": "uint256"
        },
        {
          "internalType": "address",
          "name": "owner",
          "type": "address"
        }
      ],
      "payable": false,
      "stateMutability": "view",
      "type": "function"
    },
    {
      "constant": true,
      "inputs": [],
      "name": "nextId",
      "outputs": [
        {
          "internalType": "uint256",
          "name": "",
          "type": "uint256"
        }
      ],
      "payable": false,
      "stateMutability": "view",
      "type": "function"
    },
    {
      "constant": false,
      "inputs": [
        {
          "internalType": "string",
          "name": "name",
          "type": "string"
        },
        {
          "internalType": "string",
          "name": "url",
          "type": "string"
        }
      ],
      "name": "create",
      "outputs": [],
      "payable": false,
      "stateMutability": "nonpayable",
      "type": "function"
    },
    {
      "constant": true,
      "inputs": [
        {
          "internalType": "uint256",
          "name": "id",
          "type": "uint256"
        }
      ],
      "name": "getArtwork",
      "outputs": [
        {
          "internalType": "uint256",
          "name": "",
          "type": "uint256"
        },
        {
          "internalType": "string",
          "name": "",
          "type": "string"
        },
        {
          "internalType": "string",
          "name": "",
          "type": "string"
        },
        {
          "internalType": "bool",
          "name": "",
          "type": "bool"
        },
        {
          "internalType": "uint256",
          "name": "",
          "type": "uint256"
        },
        {
          "internalType": "address",
          "name": "",
          "type": "address"
        }
      ],
      "payable": false,
      "stateMutability": "view",
      "type": "function"
    },
    {
      "constant": false,
      "inputs": [
        {
          "internalType": "uint256",
          "name": "id",
          "type": "uint256"
        },
        {
          "internalType": "uint256",
          "name": "price",
          "type": "uint256"
        }
      ],
      "name": "sellArtwork",
      "outputs": [],
      "payable": false,
      "stateMutability": "nonpayable",
      "type": "function"
    },
    {
      "constant": false,
      "inputs": [
        {
          "internalType": "uint256",
          "name": "id",
          "type": "uint256"
        }
      ],
      "name": "destroy",
      "outputs": [],
      "payable": false,
      "stateMutability": "nonpayable",
      "type": "function"
    },
    {
      "constant": true,
      "inputs": [],
      "name": "getTotalArtworks",
      "outputs": [
        {
          "internalType": "uint256",
          "name": "length",
          "type": "uint256"
        }
      ],
      "payable": false,
      "stateMutability": "view",
      "type": "function"
    },
    {
      "constant": false,
      "inputs": [
        {
          "internalType": "uint256",
          "name": "petId",
          "type": "uint256"
        }
      ],
      "name": "adopt",
      "outputs": [
        {
          "internalType": "uint256",
          "name": "",
          "type": "uint256"
        }
      ],
      "payable": false,
      "stateMutability": "nonpayable",
      "type": "function"
    },
    {
      "constant": true,
      "inputs": [],
      "name": "getAdopters",
      "outputs": [
        {
          "internalType": "address[16]",
          "name": "",
          "type": "address[16]"
        }
      ],
      "payable": false,
      "stateMutability": "view",
      "type": "function"
    }
  ],
  "bytecode": "0x608060405234801561001057600080fd5b5061105f806100206000396000f3fe608060405234801561001057600080fd5b506004361061009e5760003560e01c806361b8ce8c1161006657806361b8ce8c146105675780636e34883d146105855780638588b2c5146105bd5780639d118770146105ff578063d33957901461062d5761009e565b8063167ddf6e146100a3578063198e2b8a146102025780633de4eb171461035457806343ae80d31461039a5780634b60267314610408575b600080fd5b6100cf600480360360208110156100b957600080fd5b810190808035906020019092919050505061064b565b604051808781526020018060200180602001861515151581526020018581526020018473ffffffffffffffffffffffffffffffffffffffff1673ffffffffffffffffffffffffffffffffffffffff168152602001838103835288818151815260200191508051906020019080838360005b8381101561015b578082015181840152602081019050610140565b50505050905090810190601f1680156101885780820380516001836020036101000a031916815260200191505b50838103825287818151815260200191508051906020019080838360005b838110156101c15780820151818401526020810190506101a6565b50505050905090810190601f1680156101ee5780820380516001836020036101000a031916815260200191505b509850505050505050505060405180910390f35b6103526004803603604081101561021857600080fd5b810190808035906020019064010000000081111561023557600080fd5b82018360208201111561024757600080fd5b8035906020019184600183028401116401000000008311171561026957600080fd5b91908080601f016020809104026020016040519081016040528093929190818152602001838380828437600081840152601f19601f820116905080830192505050505050509192919290803590602001906401000000008111156102cc57600080fd5b8201836020820111156102de57600080fd5b8035906020019184600183028401116401000000008311171561030057600080fd5b91908080601f016020809104026020016040519081016040528093929190818152602001838380828437600081840152601f19601f8201169050808301925050505050505091929192905050506108d5565b005b61035c610a19565b6040518082601060200280838360005b8381101561038757808201518184015260208101905061036c565b5050505090500191505060405180910390f35b6103c6600480360360208110156103b057600080fd5b8101908080359060200190929190505050610a9a565b604051808273ffffffffffffffffffffffffffffffffffffffff1673ffffffffffffffffffffffffffffffffffffffff16815260200191505060405180910390f35b6104346004803603602081101561041e57600080fd5b8101908080359060200190929190505050610acd565b604051808781526020018060200180602001861515151581526020018581526020018473ffffffffffffffffffffffffffffffffffffffff1673ffffffffffffffffffffffffffffffffffffffff168152602001838103835288818151815260200191508051906020019080838360005b838110156104c05780820151818401526020810190506104a5565b50505050905090810190601f1680156104ed5780820380516001836020036101000a031916815260200191505b50838103825287818151815260200191508051906020019080838360005b8381101561052657808201518184015260208101905061050b565b50505050905090810190601f1680156105535780820380516001836020036101000a031916815260200191505b509850505050505050505060405180910390f35b61056f610c73565b6040518082815260200191505060405180910390f35b6105bb6004803603604081101561059b57600080fd5b810190808035906020019092919080359060200190929190505050610c79565b005b6105e9600480360360208110156105d357600080fd5b8101908080359060200190929190505050610d9b565b6040518082815260200191505060405180910390f35b61062b6004803603602081101561061557600080fd5b8101908080359060200190929190505050610e0c565b005b610635610f0e565b6040518082815260200191505060405180910390f35b6000606080600080600080600090505b6000805490508110156108ca57876000828154811061067657fe5b90600052602060002090600602016000015414156108bd576000818154811061069b57fe5b906000526020600020906006020160000154600082815481106106ba57fe5b9060005260206000209060060201600101600083815481106106d857fe5b9060005260206000209060060201600201600084815481106106f657fe5b906000526020600020906006020160030160009054906101000a900460ff166000858154811061072257fe5b9060005260206000209060060201600401546000868154811061074157fe5b906000526020600020906006020160050160009054906101000a900473ffffffffffffffffffffffffffffffffffffffff16848054600181600116156101000203166002900480601f0160208091040260200160405190810160405280929190818152602001828054600181600116156101000203166002900480156108085780601f106107dd57610100808354040283529160200191610808565b820191906000526020600020905b8154815290600101906020018083116107eb57829003601f168201915b50505050509450838054600181600116156101000203166002900480601f0160208091040260200160405190810160405280929190818152602001828054600181600116156101000203166002900480156108a45780601f10610879576101008083540402835291602001916108a4565b820191906000526020600020905b81548152906001019060200180831161088757829003601f168201915b50505050509350965096509650965096509650506108cc565b808060010191505061065b565b505b91939550919395565b60006040518060c001604052806001548152602001848152602001838152602001600015158152602001600081526020013373ffffffffffffffffffffffffffffffffffffffff1681525090806001815401808255809150509060018203906000526020600020906006020160009091929091909150600082015181600001556020820151816001019080519060200190610971929190610f1a565b50604082015181600201908051906020019061098e929190610f1a565b5060608201518160030160006101000a81548160ff0219169083151502179055506080820151816004015560a08201518160050160006101000a81548173ffffffffffffffffffffffffffffffffffffffff021916908373ffffffffffffffffffffffffffffffffffffffff1602179055505050506001600081548092919060010191905055505050565b610a21610f9a565b6002601080602002604051908101604052809291908260108015610a90576020028201915b8160009054906101000a900473ffffffffffffffffffffffffffffffffffffffff1673ffffffffffffffffffffffffffffffffffffffff1681526020019060010190808311610a46575b5050505050905090565b60028160108110610aa757fe5b016000915054906101000a900473ffffffffffffffffffffffffffffffffffffffff1681565b60008181548110610ada57fe5b9060005260206000209060060201600091509050806000015490806001018054600181600116156101000203166002900480601f016020809104026020016040519081016040528092919081815260200182805460018160011615610100020316600290048015610b8c5780601f10610b6157610100808354040283529160200191610b8c565b820191906000526020600020905b815481529060010190602001808311610b6f57829003601f168201915b505050505090806002018054600181600116156101000203166002900480601f016020809104026020016040519081016040528092919081815260200182805460018160011615610100020316600290048015610c2a5780601f10610bff57610100808354040283529160200191610c2a565b820191906000526020600020905b815481529060010190602001808311610c0d57829003601f168201915b5050505050908060030160009054906101000a900460ff16908060040154908060050160009054906101000a900473ffffffffffffffffffffffffffffffffffffffff16905086565b60015481565b3373ffffffffffffffffffffffffffffffffffffffff1660008381548110610c9d57fe5b906000526020600020906006020160050160009054906101000a900473ffffffffffffffffffffffffffffffffffffffff1673ffffffffffffffffffffffffffffffffffffffff1614610cef57600080fd5b60008090505b600080549050811015610d95578260008281548110610d1057fe5b9060005260206000209060060201600001541415610d8857600160008281548110610d3757fe5b906000526020600020906006020160030160006101000a81548160ff0219169083151502179055508160008281548110610d6d57fe5b90600052602060002090600602016004018190555050610d97565b8080600101915050610cf5565b505b5050565b6000808210158015610dae5750600f8211155b610db757600080fd5b3360028360108110610dc557fe5b0160006101000a81548173ffffffffffffffffffffffffffffffffffffffff021916908373ffffffffffffffffffffffffffffffffffffffff160217905550819050919050565b3373ffffffffffffffffffffffffffffffffffffffff1660008281548110610e3057fe5b906000526020600020906006020160050160009054906101000a900473ffffffffffffffffffffffffffffffffffffffff1673ffffffffffffffffffffffffffffffffffffffff1614610e8257600080fd5b60008181548110610e8f57fe5b9060005260206000209060060201600080820160009055600182016000610eb69190610fbd565b600282016000610ec69190610fbd565b6003820160006101000a81549060ff021916905560048201600090556005820160006101000a81549073ffffffffffffffffffffffffffffffffffffffff0219169055505050565b60008080549050905090565b828054600181600116156101000203166002900490600052602060002090601f016020900481019282601f10610f5b57805160ff1916838001178555610f89565b82800160010185558215610f89579182015b82811115610f88578251825591602001919060010190610f6d565b5b509050610f969190611005565b5090565b604051806102000160405280601090602082028038833980820191505090505090565b50805460018160011615610100020316600290046000825580601f10610fe35750611002565b601f0160209004906000526020600020908101906110019190611005565b5b50565b61102791905b8082111561102357600081600090555060010161100b565b5090565b9056fea265627a7a72315820c5e882fe7dbc6bbcaf30811907c180fac400093a44d181e422f6355f3dadec5064736f6c63430005100032",
  "source": "pragma solidity ^0.5.0;\n\ncontract Adoption {\n  struct Artwork{\n        uint id;\n        string name;\n        string url;\n        bool onSale;\n        uint price;\n        address owner;\n  }\n\n  Artwork[] public artworks;\n  uint public nextId;\n\n  address[16] public adopters;\n\n  function create(string memory name, string memory url) public {\n      artworks.push(Artwork(nextId, name, url, false, 0, msg.sender));\n      nextId++;\n  }\n\n  function getArtwork(uint id) public view returns (uint, string memory, string memory, bool, uint, address){\n    for(uint i = 0; i < artworks.length; i++){\n      if(artworks[i].id == id){\n        return (artworks[i].id, artworks[i].name, artworks[i].url, artworks[i].onSale, artworks[i].price, artworks[i].owner);\n      }\n    }\n  }\n\n  function sellArtwork(uint id, uint price) public {\n    require(artworks[id].owner == msg.sender);\n    \n    for(uint i = 0; i < artworks.length; i++){\n      if(artworks[i].id == id){\n        artworks[i].onSale = true;\n        artworks[i].price = price;\n        return;\n      }\n    }\n  }\n\n  function destroy(uint id) public{\n      require(artworks[id].owner == msg.sender);\n      delete artworks[id];\n  }\n\n  function getTotalArtworks() public view returns (uint256 length){\n      return artworks.length;\n   }\n\n  // Adopting a pet\n  function adopt(uint petId) public returns (uint) {\n    require(petId >= 0 && petId <= 15);\n\n    adopters[petId] = msg.sender;\n\n    return petId;\n  }\n\n  // Retrieving the adopters\n  function getAdopters() public view returns (address[16] memory) {\n    return adopters;\n  }\n}\n",
  "sourcePath": "/Users/julius/Documents/GitHub/pet-shop-tutorial/contracts/Adoption.sol",
  "compiler": {
    "name": "solc",
    "version": "0.5.16+commit.9c3226ce.Emscripten.clang"
  },
  "schemaVersion": "3.4.3",
  "updatedAt": "2021-11-28T10:21:20.521Z",
  "networkType": "ethereum",
  "devdoc": {
    "methods": {}
  },
  "userdoc": {
    "methods": {}
  }
}