{
  "contractName": "Adoption",
  "abi": [
    {
      "constant": true,
      "inputs": [
        {
          "internalType": "uint256",
          "name": "",
          "type": "uint256"
        }
      ],
      "name": "adopters",
      "outputs": [
        {
          "internalType": "address",
          "name": "",
          "type": "address"
        }
      ],
      "payable": false,
      "stateMutability": "view",
      "type": "function"
    },
    {
      "constant": true,
      "inputs": [
        {
          "internalType": "uint256",
          "name": "",
          "type": "uint256"
        }
      ],
      "name": "artworks",
      "outputs": [
        {
          "internalType": "uint256",
          "name": "id",
          "type": "uint256"
        },
        {
          "internalType": "string",
          "name": "url",
          "type": "string"
        },
        {
          "internalType": "bool",
          "name": "onSale",
          "type": "bool"
        },
        {
          "internalType": "uint256",
          "name": "price",
          "type": "uint256"
        }
      ],
      "payable": false,
      "stateMutability": "view",
      "type": "function"
    },
    {
      "constant": true,
      "inputs": [],
      "name": "nextId",
      "outputs": [
        {
          "internalType": "uint256",
          "name": "",
          "type": "uint256"
        }
      ],
      "payable": false,
      "stateMutability": "view",
      "type": "function"
    },
    {
      "constant": false,
      "inputs": [
        {
          "internalType": "string",
          "name": "url",
          "type": "string"
        }
      ],
      "name": "create",
      "outputs": [],
      "payable": false,
      "stateMutability": "nonpayable",
      "type": "function"
    },
    {
      "constant": true,
      "inputs": [
        {
          "internalType": "uint256",
          "name": "id",
          "type": "uint256"
        }
      ],
      "name": "getArtwork",
      "outputs": [
        {
          "internalType": "uint256",
          "name": "",
          "type": "uint256"
        },
        {
          "internalType": "string",
          "name": "",
          "type": "string"
        },
        {
          "internalType": "bool",
          "name": "",
          "type": "bool"
        },
        {
          "internalType": "uint256",
          "name": "",
          "type": "uint256"
        }
      ],
      "payable": false,
      "stateMutability": "view",
      "type": "function"
    },
    {
      "constant": false,
      "inputs": [
        {
          "internalType": "uint256",
          "name": "id",
          "type": "uint256"
        },
        {
          "internalType": "uint256",
          "name": "price",
          "type": "uint256"
        }
      ],
      "name": "sellArtwork",
      "outputs": [],
      "payable": false,
      "stateMutability": "nonpayable",
      "type": "function"
    },
    {
      "constant": false,
      "inputs": [
        {
          "internalType": "uint256",
          "name": "id",
          "type": "uint256"
        }
      ],
      "name": "destroy",
      "outputs": [],
      "payable": false,
      "stateMutability": "nonpayable",
      "type": "function"
    },
    {
      "constant": false,
      "inputs": [
        {
          "internalType": "uint256",
          "name": "petId",
          "type": "uint256"
        }
      ],
      "name": "adopt",
      "outputs": [
        {
          "internalType": "uint256",
          "name": "",
          "type": "uint256"
        }
      ],
      "payable": false,
      "stateMutability": "nonpayable",
      "type": "function"
    },
    {
      "constant": true,
      "inputs": [],
      "name": "getAdopters",
      "outputs": [
        {
          "internalType": "address[16]",
          "name": "",
          "type": "address[16]"
        }
      ],
      "payable": false,
      "stateMutability": "view",
      "type": "function"
    }
  ],
  "bytecode": "0x608060405234801561001057600080fd5b50610ae5806100206000396000f3fe608060405234801561001057600080fd5b50600436106100935760003560e01c806361b8ce8c1161006657806361b8ce8c146102cc5780636e34883d146102ea5780638588b2c5146103225780639d11877014610364578063b6a46b3b1461039257610093565b8063167ddf6e146100985780633de4eb171461015857806343ae80d31461019e5780634b6026731461020c575b600080fd5b6100c4600480360360208110156100ae57600080fd5b810190808035906020019092919050505061044d565b604051808581526020018060200184151515158152602001838152602001828103825285818151815260200191508051906020019080838360005b8381101561011a5780820151818401526020810190506100ff565b50505050905090810190601f1680156101475780820380516001836020036101000a031916815260200191505b509550505050505060405180910390f35b6101606105d5565b6040518082601060200280838360005b8381101561018b578082015181840152602081019050610170565b5050505090500191505060405180910390f35b6101ca600480360360208110156101b457600080fd5b8101908080359060200190929190505050610656565b604051808273ffffffffffffffffffffffffffffffffffffffff1673ffffffffffffffffffffffffffffffffffffffff16815260200191505060405180910390f35b6102386004803603602081101561022257600080fd5b8101908080359060200190929190505050610689565b604051808581526020018060200184151515158152602001838152602001828103825285818151815260200191508051906020019080838360005b8381101561028e578082015181840152602081019050610273565b50505050905090810190601f1680156102bb5780820380516001836020036101000a031916815260200191505b509550505050505060405180910390f35b6102d461076b565b6040518082815260200191505060405180910390f35b6103206004803603604081101561030057600080fd5b810190808035906020019092919080359060200190929190505050610771565b005b61034e6004803603602081101561033857600080fd5b810190808035906020019092919050505061081d565b6040518082815260200191505060405180910390f35b6103906004803603602081101561037a57600080fd5b810190808035906020019092919050505061088e565b005b61044b600480360360208110156103a857600080fd5b81019080803590602001906401000000008111156103c557600080fd5b8201836020820111156103d757600080fd5b803590602001918460018302840111640100000000831117156103f957600080fd5b91908080601f016020809104026020016040519081016040528093929190818152602001838380828437600081840152601f19601f8201169050808301925050505050505091929192905050506108e3565b005b6000606060008060008090505b6000805490508110156105cc57856000828154811061047557fe5b90600052602060002090600402016000015414156105bf576000818154811061049a57fe5b906000526020600020906004020160000154600082815481106104b957fe5b9060005260206000209060040201600101600083815481106104d757fe5b906000526020600020906004020160020160009054906101000a900460ff166000848154811061050357fe5b906000526020600020906004020160030154828054600181600116156101000203166002900480601f0160208091040260200160405190810160405280929190818152602001828054600181600116156101000203166002900480156105aa5780601f1061057f576101008083540402835291602001916105aa565b820191906000526020600020905b81548152906001019060200180831161058d57829003601f168201915b505050505092509450945094509450506105ce565b808060010191505061045a565b505b9193509193565b6105dd6109a0565b600260108060200260405190810160405280929190826010801561064c576020028201915b8160009054906101000a900473ffffffffffffffffffffffffffffffffffffffff1673ffffffffffffffffffffffffffffffffffffffff1681526020019060010190808311610602575b5050505050905090565b6002816010811061066357fe5b016000915054906101000a900473ffffffffffffffffffffffffffffffffffffffff1681565b6000818154811061069657fe5b9060005260206000209060040201600091509050806000015490806001018054600181600116156101000203166002900480601f0160208091040260200160405190810160405280929190818152602001828054600181600116156101000203166002900480156107485780601f1061071d57610100808354040283529160200191610748565b820191906000526020600020905b81548152906001019060200180831161072b57829003601f168201915b5050505050908060020160009054906101000a900460ff16908060030154905084565b60015481565b60008090505b60008054905081101561081757826000828154811061079257fe5b906000526020600020906004020160000154141561080a576001600082815481106107b957fe5b906000526020600020906004020160020160006101000a81548160ff02191690831515021790555081600082815481106107ef57fe5b90600052602060002090600402016003018190555050610819565b8080600101915050610777565b505b5050565b60008082101580156108305750600f8211155b61083957600080fd5b336002836010811061084757fe5b0160006101000a81548173ffffffffffffffffffffffffffffffffffffffff021916908373ffffffffffffffffffffffffffffffffffffffff160217905550819050919050565b6000818154811061089b57fe5b90600052602060002090600402016000808201600090556001820160006108c291906109c3565b6002820160006101000a81549060ff02191690556003820160009055505050565b60006040518060800160405280600154815260200183815260200160001515815260200160008152509080600181540180825580915050906001820390600052602060002090600402016000909192909190915060008201518160000155602082015181600101908051906020019061095d929190610a0b565b5060408201518160020160006101000a81548160ff0219169083151502179055506060820151816003015550505060016000815480929190600101919050555050565b604051806102000160405280601090602082028038833980820191505090505090565b50805460018160011615610100020316600290046000825580601f106109e95750610a08565b601f016020900490600052602060002090810190610a079190610a8b565b5b50565b828054600181600116156101000203166002900490600052602060002090601f016020900481019282601f10610a4c57805160ff1916838001178555610a7a565b82800160010185558215610a7a579182015b82811115610a79578251825591602001919060010190610a5e565b5b509050610a879190610a8b565b5090565b610aad91905b80821115610aa9576000816000905550600101610a91565b5090565b9056fea265627a7a7231582083fd77964bce22351003f499df4ee5095b2910b432e7c617ab1fdfb5f05f66fb64736f6c63430005100032",
  "source": "pragma solidity ^0.5.0;\n\ncontract Adoption {\n  struct Artwork{\n        uint id;\n        string url;\n        bool onSale;\n        uint price;\n  }\n\n  Artwork[] public artworks;\n  uint public nextId;\n\n  address[16] public adopters;\n\n  function create(string memory url) public{\n      artworks.push(Artwork(nextId, url, false, 0));\n      nextId++;\n  }\n\n  function getArtwork(uint id) public view returns (uint, string memory, bool, uint){\n    for(uint i = 0; i < artworks.length; i++){\n      if(artworks[i].id == id){\n        return (artworks[i].id, artworks[i].url, artworks[i].onSale, artworks[i].price);\n      }\n    }\n  }\n\n  function sellArtwork(uint id, uint price) public {\n    for(uint i = 0; i < artworks.length; i++){\n      if(artworks[i].id == id){\n        artworks[i].onSale = true;\n        artworks[i].price = price;\n        return;\n      }\n    }\n  }\n\n  function destroy(uint id) public{\n      delete artworks[id];\n  }\n\n  // Adopting a pet\n  function adopt(uint petId) public returns (uint) {\n    require(petId >= 0 && petId <= 15);\n\n    adopters[petId] = msg.sender;\n\n    return petId;\n  }\n\n  // Retrieving the adopters\n  function getAdopters() public view returns (address[16] memory) {\n    return adopters;\n  }\n}\n",
  "sourcePath": "/Users/julius/Documents/GitHub/pet-shop-tutorial/contracts/Adoption.sol",
  "compiler": {
    "name": "solc",
    "version": "0.5.16+commit.9c3226ce.Emscripten.clang"
  },
  "schemaVersion": "3.4.3",
  "updatedAt": "2021-11-27T11:53:32.042Z",
  "devdoc": {
    "methods": {}
  },
  "userdoc": {
    "methods": {}
  }
}