{
  "contractName": "Adoption",
  "abi": [
    {
      "inputs": [],
      "payable": false,
      "stateMutability": "nonpayable",
      "type": "constructor"
    },
    {
      "constant": true,
      "inputs": [
        {
          "internalType": "uint256",
          "name": "",
          "type": "uint256"
        }
      ],
      "name": "adopters",
      "outputs": [
        {
          "internalType": "address",
          "name": "",
          "type": "address"
        }
      ],
      "payable": false,
      "stateMutability": "view",
      "type": "function"
    },
    {
      "constant": true,
      "inputs": [
        {
          "internalType": "uint256",
          "name": "",
          "type": "uint256"
        }
      ],
      "name": "artworks",
      "outputs": [
        {
          "internalType": "address",
          "name": "owner",
          "type": "address"
        },
        {
          "internalType": "string",
          "name": "url",
          "type": "string"
        },
        {
          "internalType": "int256",
          "name": "price",
          "type": "int256"
        },
        {
          "internalType": "string",
          "name": "author",
          "type": "string"
        }
      ],
      "payable": false,
      "stateMutability": "view",
      "type": "function"
    },
    {
      "constant": true,
      "inputs": [],
      "name": "totalArtworks",
      "outputs": [
        {
          "internalType": "uint256",
          "name": "",
          "type": "uint256"
        }
      ],
      "payable": false,
      "stateMutability": "view",
      "type": "function"
    },
    {
      "constant": false,
      "inputs": [
        {
          "internalType": "string",
          "name": "url",
          "type": "string"
        },
        {
          "internalType": "int256",
          "name": "price",
          "type": "int256"
        },
        {
          "internalType": "string",
          "name": "author",
          "type": "string"
        }
      ],
      "name": "create",
      "outputs": [
        {
          "internalType": "uint256",
          "name": "totalCountries",
          "type": "uint256"
        }
      ],
      "payable": false,
      "stateMutability": "nonpayable",
      "type": "function"
    },
    {
      "constant": false,
      "inputs": [
        {
          "internalType": "uint256",
          "name": "petId",
          "type": "uint256"
        }
      ],
      "name": "adopt",
      "outputs": [
        {
          "internalType": "uint256",
          "name": "",
          "type": "uint256"
        }
      ],
      "payable": false,
      "stateMutability": "nonpayable",
      "type": "function"
    },
    {
      "constant": true,
      "inputs": [],
      "name": "getAdopters",
      "outputs": [
        {
          "internalType": "address[16]",
          "name": "",
          "type": "address[16]"
        }
      ],
      "payable": false,
      "stateMutability": "view",
      "type": "function"
    }
  ],
  "bytecode": "0x608060405234801561001057600080fd5b50600060018190555061094e806100286000396000f3fe608060405234801561001057600080fd5b50600436106100625760003560e01c80633de4eb171461006757806343ae80d3146100ad5780634b6026731461011b57806355445240146102685780638588b2c5146103d8578063e4a233e11461041a575b600080fd5b61006f610438565b6040518082601060200280838360005b8381101561009a57808201518184015260208101905061007f565b5050505090500191505060405180910390f35b6100d9600480360360208110156100c357600080fd5b81019080803590602001909291905050506104b9565b604051808273ffffffffffffffffffffffffffffffffffffffff1673ffffffffffffffffffffffffffffffffffffffff16815260200191505060405180910390f35b6101476004803603602081101561013157600080fd5b81019080803590602001909291905050506104ec565b604051808573ffffffffffffffffffffffffffffffffffffffff1673ffffffffffffffffffffffffffffffffffffffff1681526020018060200184815260200180602001838103835286818151815260200191508051906020019080838360005b838110156101c35780820151818401526020810190506101a8565b50505050905090810190601f1680156101f05780820380516001836020036101000a031916815260200191505b50838103825284818151815260200191508051906020019080838360005b8381101561022957808201518184015260208101905061020e565b50505050905090810190601f1680156102565780820380516001836020036101000a031916815260200191505b50965050505050505060405180910390f35b6103c26004803603606081101561027e57600080fd5b810190808035906020019064010000000081111561029b57600080fd5b8201836020820111156102ad57600080fd5b803590602001918460018302840111640100000000831117156102cf57600080fd5b91908080601f016020809104026020016040519081016040528093929190818152602001838380828437600081840152601f19601f820116905080830192505050505050509192919290803590602001909291908035906020019064010000000081111561033c57600080fd5b82018360208201111561034e57600080fd5b8035906020019184600183028401116401000000008311171561037057600080fd5b91908080601f016020809104026020016040519081016040528093929190818152602001838380828437600081840152601f19601f820116905080830192505050505050509192919290505050610679565b6040518082815260200191505060405180910390f35b610404600480360360208110156103ee57600080fd5b810190808035906020019092919050505061079c565b6040518082815260200191505060405180910390f35b61042261080d565b6040518082815260200191505060405180910390f35b610440610813565b60026010806020026040519081016040528092919082601080156104af576020028201915b8160009054906101000a900473ffffffffffffffffffffffffffffffffffffffff1673ffffffffffffffffffffffffffffffffffffffff1681526020019060010190808311610465575b5050505050905090565b600281601081106104c657fe5b016000915054906101000a900473ffffffffffffffffffffffffffffffffffffffff1681565b600081815481106104f957fe5b90600052602060002090600402016000915090508060000160009054906101000a900473ffffffffffffffffffffffffffffffffffffffff1690806001018054600181600116156101000203166002900480601f0160208091040260200160405190810160405280929190818152602001828054600181600116156101000203166002900480156105cb5780601f106105a0576101008083540402835291602001916105cb565b820191906000526020600020905b8154815290600101906020018083116105ae57829003601f168201915b505050505090806002015490806003018054600181600116156101000203166002900480601f01602080910402602001604051908101604052809291908181526020018280546001816001161561010002031660029004801561066f5780601f106106445761010080835404028352916020019161066f565b820191906000526020600020905b81548152906001019060200180831161065257829003601f168201915b5050505050905084565b600080339050610687610836565b60405180608001604052808373ffffffffffffffffffffffffffffffffffffffff1681526020018781526020018681526020018581525090506000819080600181540180825580915050906001820390600052602060002090600402016000909192909190915060008201518160000160006101000a81548173ffffffffffffffffffffffffffffffffffffffff021916908373ffffffffffffffffffffffffffffffffffffffff1602179055506020820151816001019080519060200190610751929190610874565b50604082015181600201556060820151816003019080519060200190610778929190610874565b50505050600160008154809291906001019190505550600154925050509392505050565b60008082101580156107af5750600f8211155b6107b857600080fd5b33600283601081106107c657fe5b0160006101000a81548173ffffffffffffffffffffffffffffffffffffffff021916908373ffffffffffffffffffffffffffffffffffffffff160217905550819050919050565b60015481565b604051806102000160405280601090602082028038833980820191505090505090565b6040518060800160405280600073ffffffffffffffffffffffffffffffffffffffff1681526020016060815260200160008152602001606081525090565b828054600181600116156101000203166002900490600052602060002090601f016020900481019282601f106108b557805160ff19168380011785556108e3565b828001600101855582156108e3579182015b828111156108e25782518255916020019190600101906108c7565b5b5090506108f091906108f4565b5090565b61091691905b808211156109125760008160009055506001016108fa565b5090565b9056fea265627a7a72315820648617fb10070d59477123979ae88c619444e45a5f77d0511aeea7646fa1436f64736f6c63430005100032",
  "source": "pragma solidity ^0.5.0;\n\ncontract Adoption {\n\nstruct art{\n      address owner;\n      string url;\n      int256 price;\n      string author;\n}\n\nart[] public artworks;\nuint256 public totalArtworks;\n\nconstructor() public {\n    totalArtworks = 0;\n}\n\naddress[16] public adopters;\n\nfunction create(string memory url, int256 price, string memory author) public returns (uint256 totalCountries){\n    address owner = msg.sender;\n    art memory newArtwork = art(owner, url, price, author);\n    artworks.push(newArtwork);\n    totalArtworks++;\n    //emit event\n    // emit CountryEvent (countryName, leader, population);\n    return totalArtworks;\n}\n\n// Adopting a pet\nfunction adopt(uint petId) public returns (uint) {\n  require(petId >= 0 && petId <= 15);\n\n  adopters[petId] = msg.sender;\n\n  return petId;\n}\n\n// Retrieving the adopters\nfunction getAdopters() public view returns (address[16] memory) {\n  return adopters;\n}\n\n}\n",
  "sourcePath": "/Users/julius/Documents/GitHub/pet-shop-tutorial/contracts/Adoption.sol",
  "compiler": {
    "name": "solc",
    "version": "0.5.16+commit.9c3226ce.Emscripten.clang"
  },
  "schemaVersion": "3.4.3",
  "updatedAt": "2021-11-26T16:24:34.407Z",
  "devdoc": {
    "methods": {}
  },
  "userdoc": {
    "methods": {}
  }
}