{
  "contractName": "Adoption",
  "abi": [
    {
      "constant": true,
      "inputs": [
        {
          "internalType": "uint256",
          "name": "",
          "type": "uint256"
        }
      ],
      "name": "adopters",
      "outputs": [
        {
          "internalType": "address",
          "name": "",
          "type": "address"
        }
      ],
      "payable": false,
      "stateMutability": "view",
      "type": "function"
    },
    {
      "constant": true,
      "inputs": [
        {
          "internalType": "uint256",
          "name": "",
          "type": "uint256"
        }
      ],
      "name": "artworks",
      "outputs": [
        {
          "internalType": "uint256",
          "name": "id",
          "type": "uint256"
        },
        {
          "internalType": "string",
          "name": "url",
          "type": "string"
        },
        {
          "internalType": "bool",
          "name": "onSale",
          "type": "bool"
        },
        {
          "internalType": "uint256",
          "name": "price",
          "type": "uint256"
        }
      ],
      "payable": false,
      "stateMutability": "view",
      "type": "function"
    },
    {
      "constant": true,
      "inputs": [],
      "name": "nextId",
      "outputs": [
        {
          "internalType": "uint256",
          "name": "",
          "type": "uint256"
        }
      ],
      "payable": false,
      "stateMutability": "view",
      "type": "function"
    },
    {
      "constant": false,
      "inputs": [
        {
          "internalType": "string",
          "name": "url",
          "type": "string"
        }
      ],
      "name": "create",
      "outputs": [],
      "payable": false,
      "stateMutability": "nonpayable",
      "type": "function"
    },
    {
      "constant": true,
      "inputs": [
        {
          "internalType": "uint256",
          "name": "id",
          "type": "uint256"
        }
      ],
      "name": "getArtwork",
      "outputs": [
        {
          "internalType": "uint256",
          "name": "",
          "type": "uint256"
        },
        {
          "internalType": "string",
          "name": "",
          "type": "string"
        },
        {
          "internalType": "bool",
          "name": "",
          "type": "bool"
        },
        {
          "internalType": "uint256",
          "name": "",
          "type": "uint256"
        }
      ],
      "payable": false,
      "stateMutability": "view",
      "type": "function"
    },
    {
      "constant": false,
      "inputs": [
        {
          "internalType": "uint256",
          "name": "id",
          "type": "uint256"
        },
        {
          "internalType": "uint256",
          "name": "price",
          "type": "uint256"
        }
      ],
      "name": "sellArtwork",
      "outputs": [],
      "payable": false,
      "stateMutability": "nonpayable",
      "type": "function"
    },
    {
      "constant": false,
      "inputs": [
        {
          "internalType": "uint256",
          "name": "id",
          "type": "uint256"
        }
      ],
      "name": "destroy",
      "outputs": [],
      "payable": false,
      "stateMutability": "nonpayable",
      "type": "function"
    },
    {
      "constant": true,
      "inputs": [],
      "name": "getTotalArtworks",
      "outputs": [
        {
          "internalType": "uint256",
          "name": "",
          "type": "uint256"
        }
      ],
      "payable": false,
      "stateMutability": "view",
      "type": "function"
    },
    {
      "constant": false,
      "inputs": [
        {
          "internalType": "uint256",
          "name": "petId",
          "type": "uint256"
        }
      ],
      "name": "adopt",
      "outputs": [
        {
          "internalType": "uint256",
          "name": "",
          "type": "uint256"
        }
      ],
      "payable": false,
      "stateMutability": "nonpayable",
      "type": "function"
    },
    {
      "constant": true,
      "inputs": [],
      "name": "getAdopters",
      "outputs": [
        {
          "internalType": "address[16]",
          "name": "",
          "type": "address[16]"
        }
      ],
      "payable": false,
      "stateMutability": "view",
      "type": "function"
    }
  ],
  "bytecode": "0x608060405234801561001057600080fd5b50610b1a806100206000396000f3fe608060405234801561001057600080fd5b506004361061009e5760003560e01c80636e34883d116100665780636e34883d146102f55780638588b2c51461032d5780639d1187701461036f578063b6a46b3b1461039d578063d3395790146104585761009e565b8063167ddf6e146100a35780633de4eb171461016357806343ae80d3146101a95780634b6026731461021757806361b8ce8c146102d7575b600080fd5b6100cf600480360360208110156100b957600080fd5b8101908080359060200190929190505050610476565b604051808581526020018060200184151515158152602001838152602001828103825285818151815260200191508051906020019080838360005b8381101561012557808201518184015260208101905061010a565b50505050905090810190601f1680156101525780820380516001836020036101000a031916815260200191505b509550505050505060405180910390f35b61016b6105fe565b6040518082601060200280838360005b8381101561019657808201518184015260208101905061017b565b5050505090500191505060405180910390f35b6101d5600480360360208110156101bf57600080fd5b810190808035906020019092919050505061067f565b604051808273ffffffffffffffffffffffffffffffffffffffff1673ffffffffffffffffffffffffffffffffffffffff16815260200191505060405180910390f35b6102436004803603602081101561022d57600080fd5b81019080803590602001909291905050506106b2565b604051808581526020018060200184151515158152602001838152602001828103825285818151815260200191508051906020019080838360005b8381101561029957808201518184015260208101905061027e565b50505050905090810190601f1680156102c65780820380516001836020036101000a031916815260200191505b509550505050505060405180910390f35b6102df610794565b6040518082815260200191505060405180910390f35b61032b6004803603604081101561030b57600080fd5b81019080803590602001909291908035906020019092919050505061079a565b005b6103596004803603602081101561034357600080fd5b8101908080359060200190929190505050610846565b6040518082815260200191505060405180910390f35b61039b6004803603602081101561038557600080fd5b81019080803590602001909291905050506108b7565b005b610456600480360360208110156103b357600080fd5b81019080803590602001906401000000008111156103d057600080fd5b8201836020820111156103e257600080fd5b8035906020019184600183028401116401000000008311171561040457600080fd5b91908080601f016020809104026020016040519081016040528093929190818152602001838380828437600081840152601f19601f82011690508083019250505050505050919291929050505061090c565b005b6104606109c9565b6040518082815260200191505060405180910390f35b6000606060008060008090505b6000805490508110156105f557856000828154811061049e57fe5b90600052602060002090600402016000015414156105e857600081815481106104c357fe5b906000526020600020906004020160000154600082815481106104e257fe5b90600052602060002090600402016001016000838154811061050057fe5b906000526020600020906004020160020160009054906101000a900460ff166000848154811061052c57fe5b906000526020600020906004020160030154828054600181600116156101000203166002900480601f0160208091040260200160405190810160405280929190818152602001828054600181600116156101000203166002900480156105d35780601f106105a8576101008083540402835291602001916105d3565b820191906000526020600020905b8154815290600101906020018083116105b657829003601f168201915b505050505092509450945094509450506105f7565b8080600101915050610483565b505b9193509193565b6106066109d5565b6002601080602002604051908101604052809291908260108015610675576020028201915b8160009054906101000a900473ffffffffffffffffffffffffffffffffffffffff1673ffffffffffffffffffffffffffffffffffffffff168152602001906001019080831161062b575b5050505050905090565b6002816010811061068c57fe5b016000915054906101000a900473ffffffffffffffffffffffffffffffffffffffff1681565b600081815481106106bf57fe5b9060005260206000209060040201600091509050806000015490806001018054600181600116156101000203166002900480601f0160208091040260200160405190810160405280929190818152602001828054600181600116156101000203166002900480156107715780601f1061074657610100808354040283529160200191610771565b820191906000526020600020905b81548152906001019060200180831161075457829003601f168201915b5050505050908060020160009054906101000a900460ff16908060030154905084565b60015481565b60008090505b6000805490508110156108405782600082815481106107bb57fe5b9060005260206000209060040201600001541415610833576001600082815481106107e257fe5b906000526020600020906004020160020160006101000a81548160ff021916908315150217905550816000828154811061081857fe5b90600052602060002090600402016003018190555050610842565b80806001019150506107a0565b505b5050565b60008082101580156108595750600f8211155b61086257600080fd5b336002836010811061087057fe5b0160006101000a81548173ffffffffffffffffffffffffffffffffffffffff021916908373ffffffffffffffffffffffffffffffffffffffff160217905550819050919050565b600081815481106108c457fe5b90600052602060002090600402016000808201600090556001820160006108eb91906109f8565b6002820160006101000a81549060ff02191690556003820160009055505050565b600060405180608001604052806001548152602001838152602001600015158152602001600081525090806001815401808255809150509060018203906000526020600020906004020160009091929091909150600082015181600001556020820151816001019080519060200190610986929190610a40565b5060408201518160020160006101000a81548160ff0219169083151502179055506060820151816003015550505060016000815480929190600101919050555050565b60008080549050905090565b604051806102000160405280601090602082028038833980820191505090505090565b50805460018160011615610100020316600290046000825580601f10610a1e5750610a3d565b601f016020900490600052602060002090810190610a3c9190610ac0565b5b50565b828054600181600116156101000203166002900490600052602060002090601f016020900481019282601f10610a8157805160ff1916838001178555610aaf565b82800160010185558215610aaf579182015b82811115610aae578251825591602001919060010190610a93565b5b509050610abc9190610ac0565b5090565b610ae291905b80821115610ade576000816000905550600101610ac6565b5090565b9056fea265627a7a72315820a3528c353903f7f4260cf109526139936f3cd29fc8d21b720b9bca8c073656ce64736f6c63430005100032",
  "source": "pragma solidity ^0.5.0;\n\ncontract Adoption {\n  struct Artwork{\n        uint id;\n        string url;\n        bool onSale;\n        uint price;\n  }\n\n  Artwork[] public artworks;\n  uint public nextId;\n\n  address[16] public adopters;\n\n  function create(string memory url) public{\n      artworks.push(Artwork(nextId, url, false, 0));\n      nextId++;\n  }\n\n  function getArtwork(uint id) public view returns (uint, string memory, bool, uint){\n    for(uint i = 0; i < artworks.length; i++){\n      if(artworks[i].id == id){\n        return (artworks[i].id, artworks[i].url, artworks[i].onSale, artworks[i].price);\n      }\n    }\n  }\n\n  function sellArtwork(uint id, uint price) public {\n    for(uint i = 0; i < artworks.length; i++){\n      if(artworks[i].id == id){\n        artworks[i].onSale = true;\n        artworks[i].price = price;\n        return;\n      }\n    }\n  }\n\n  function destroy(uint id) public{\n      delete artworks[id];\n  }\n\n  function getTotalArtworks() public view returns (uint){\n      return(artworks.length);\n   }\n\n  // Adopting a pet\n  function adopt(uint petId) public returns (uint) {\n    require(petId >= 0 && petId <= 15);\n\n    adopters[petId] = msg.sender;\n\n    return petId;\n  }\n\n  // Retrieving the adopters\n  function getAdopters() public view returns (address[16] memory) {\n    return adopters;\n  }\n}\n",
  "sourcePath": "/Users/julius/Documents/GitHub/pet-shop-tutorial/contracts/Adoption.sol",
  "compiler": {
    "name": "solc",
    "version": "0.5.16+commit.9c3226ce.Emscripten.clang"
  },
  "schemaVersion": "3.4.3",
  "updatedAt": "2021-11-27T15:03:24.969Z",
  "devdoc": {
    "methods": {}
  },
  "userdoc": {
    "methods": {}
  }
}