{
  "contractName": "Adoption",
  "abi": [
    {
      "constant": true,
      "inputs": [
        {
          "internalType": "uint256",
          "name": "",
          "type": "uint256"
        }
      ],
      "name": "adopters",
      "outputs": [
        {
          "internalType": "address",
          "name": "",
          "type": "address"
        }
      ],
      "payable": false,
      "stateMutability": "view",
      "type": "function"
    },
    {
      "constant": true,
      "inputs": [
        {
          "internalType": "uint256",
          "name": "",
          "type": "uint256"
        }
      ],
      "name": "artworks",
      "outputs": [
        {
          "internalType": "uint256",
          "name": "id",
          "type": "uint256"
        },
        {
          "internalType": "string",
          "name": "url",
          "type": "string"
        },
        {
          "internalType": "bool",
          "name": "onSale",
          "type": "bool"
        },
        {
          "internalType": "uint256",
          "name": "price",
          "type": "uint256"
        },
        {
          "internalType": "address",
          "name": "owner",
          "type": "address"
        }
      ],
      "payable": false,
      "stateMutability": "view",
      "type": "function"
    },
    {
      "constant": true,
      "inputs": [],
      "name": "nextId",
      "outputs": [
        {
          "internalType": "uint256",
          "name": "",
          "type": "uint256"
        }
      ],
      "payable": false,
      "stateMutability": "view",
      "type": "function"
    },
    {
      "constant": false,
      "inputs": [
        {
          "internalType": "string",
          "name": "url",
          "type": "string"
        }
      ],
      "name": "create",
      "outputs": [],
      "payable": false,
      "stateMutability": "nonpayable",
      "type": "function"
    },
    {
      "constant": true,
      "inputs": [
        {
          "internalType": "uint256",
          "name": "id",
          "type": "uint256"
        }
      ],
      "name": "getArtwork",
      "outputs": [
        {
          "internalType": "uint256",
          "name": "",
          "type": "uint256"
        },
        {
          "internalType": "string",
          "name": "",
          "type": "string"
        },
        {
          "internalType": "bool",
          "name": "",
          "type": "bool"
        },
        {
          "internalType": "uint256",
          "name": "",
          "type": "uint256"
        },
        {
          "internalType": "address",
          "name": "",
          "type": "address"
        }
      ],
      "payable": false,
      "stateMutability": "view",
      "type": "function"
    },
    {
      "constant": false,
      "inputs": [
        {
          "internalType": "uint256",
          "name": "id",
          "type": "uint256"
        },
        {
          "internalType": "uint256",
          "name": "price",
          "type": "uint256"
        }
      ],
      "name": "sellArtwork",
      "outputs": [],
      "payable": false,
      "stateMutability": "nonpayable",
      "type": "function"
    },
    {
      "constant": false,
      "inputs": [
        {
          "internalType": "uint256",
          "name": "id",
          "type": "uint256"
        }
      ],
      "name": "destroy",
      "outputs": [],
      "payable": false,
      "stateMutability": "nonpayable",
      "type": "function"
    },
    {
      "constant": true,
      "inputs": [],
      "name": "getTotalArtworks",
      "outputs": [
        {
          "internalType": "uint256",
          "name": "length",
          "type": "uint256"
        }
      ],
      "payable": false,
      "stateMutability": "view",
      "type": "function"
    },
    {
      "constant": false,
      "inputs": [
        {
          "internalType": "uint256",
          "name": "petId",
          "type": "uint256"
        }
      ],
      "name": "adopt",
      "outputs": [
        {
          "internalType": "uint256",
          "name": "",
          "type": "uint256"
        }
      ],
      "payable": false,
      "stateMutability": "nonpayable",
      "type": "function"
    },
    {
      "constant": true,
      "inputs": [],
      "name": "getAdopters",
      "outputs": [
        {
          "internalType": "address[16]",
          "name": "",
          "type": "address[16]"
        }
      ],
      "payable": false,
      "stateMutability": "view",
      "type": "function"
    }
  ],
  "bytecode": "0x608060405234801561001057600080fd5b50610d61806100206000396000f3fe608060405234801561001057600080fd5b506004361061009e5760003560e01c80636e34883d116100665780636e34883d1461035b5780638588b2c5146103935780639d118770146103d5578063b6a46b3b14610403578063d3395790146104be5761009e565b8063167ddf6e146100a35780633de4eb171461019657806343ae80d3146101dc5780634b6026731461024a57806361b8ce8c1461033d575b600080fd5b6100cf600480360360208110156100b957600080fd5b81019080803590602001909291905050506104dc565b6040518086815260200180602001851515151581526020018481526020018373ffffffffffffffffffffffffffffffffffffffff1673ffffffffffffffffffffffffffffffffffffffff168152602001828103825286818151815260200191508051906020019080838360005b8381101561015757808201518184015260208101905061013c565b50505050905090810190601f1680156101845780820380516001836020036101000a031916815260200191505b50965050505050505060405180910390f35b61019e6106a9565b6040518082601060200280838360005b838110156101c95780820151818401526020810190506101ae565b5050505090500191505060405180910390f35b610208600480360360208110156101f257600080fd5b810190808035906020019092919050505061072a565b604051808273ffffffffffffffffffffffffffffffffffffffff1673ffffffffffffffffffffffffffffffffffffffff16815260200191505060405180910390f35b6102766004803603602081101561026057600080fd5b810190808035906020019092919050505061075d565b6040518086815260200180602001851515151581526020018481526020018373ffffffffffffffffffffffffffffffffffffffff1673ffffffffffffffffffffffffffffffffffffffff168152602001828103825286818151815260200191508051906020019080838360005b838110156102fe5780820151818401526020810190506102e3565b50505050905090810190601f16801561032b5780820380516001836020036101000a031916815260200191505b50965050505050505060405180910390f35b610345610865565b6040518082815260200191505060405180910390f35b6103916004803603604081101561037157600080fd5b81019080803590602001909291908035906020019092919050505061086b565b005b6103bf600480360360208110156103a957600080fd5b810190808035906020019092919050505061098d565b6040518082815260200191505060405180910390f35b610401600480360360208110156103eb57600080fd5b81019080803590602001909291905050506109fe565b005b6104bc6004803603602081101561041957600080fd5b810190808035906020019064010000000081111561043657600080fd5b82018360208201111561044857600080fd5b8035906020019184600183028401116401000000008311171561046a57600080fd5b91908080601f016020809104026020016040519081016040528093929190818152602001838380828437600081840152601f19601f820116905080830192505050505050509192919290505050610af0565b005b6104c6610c10565b6040518082815260200191505060405180910390f35b60006060600080600080600090505b60008054905081101561069e57866000828154811061050657fe5b9060005260206000209060050201600001541415610691576000818154811061052b57fe5b9060005260206000209060050201600001546000828154811061054a57fe5b90600052602060002090600502016001016000838154811061056857fe5b906000526020600020906005020160020160009054906101000a900460ff166000848154811061059457fe5b906000526020600020906005020160030154600085815481106105b357fe5b906000526020600020906005020160040160009054906101000a900473ffffffffffffffffffffffffffffffffffffffff16838054600181600116156101000203166002900480601f01602080910402602001604051908101604052809291908181526020018280546001816001161561010002031660029004801561067a5780601f1061064f5761010080835404028352916020019161067a565b820191906000526020600020905b81548152906001019060200180831161065d57829003601f168201915b5050505050935095509550955095509550506106a0565b80806001019150506104eb565b505b91939590929450565b6106b1610c1c565b6002601080602002604051908101604052809291908260108015610720576020028201915b8160009054906101000a900473ffffffffffffffffffffffffffffffffffffffff1673ffffffffffffffffffffffffffffffffffffffff16815260200190600101908083116106d6575b5050505050905090565b6002816010811061073757fe5b016000915054906101000a900473ffffffffffffffffffffffffffffffffffffffff1681565b6000818154811061076a57fe5b9060005260206000209060050201600091509050806000015490806001018054600181600116156101000203166002900480601f01602080910402602001604051908101604052809291908181526020018280546001816001161561010002031660029004801561081c5780601f106107f15761010080835404028352916020019161081c565b820191906000526020600020905b8154815290600101906020018083116107ff57829003601f168201915b5050505050908060020160009054906101000a900460ff16908060030154908060040160009054906101000a900473ffffffffffffffffffffffffffffffffffffffff16905085565b60015481565b3373ffffffffffffffffffffffffffffffffffffffff166000838154811061088f57fe5b906000526020600020906005020160040160009054906101000a900473ffffffffffffffffffffffffffffffffffffffff1673ffffffffffffffffffffffffffffffffffffffff16146108e157600080fd5b60008090505b60008054905081101561098757826000828154811061090257fe5b906000526020600020906005020160000154141561097a5760016000828154811061092957fe5b906000526020600020906005020160020160006101000a81548160ff021916908315150217905550816000828154811061095f57fe5b90600052602060002090600502016003018190555050610989565b80806001019150506108e7565b505b5050565b60008082101580156109a05750600f8211155b6109a957600080fd5b33600283601081106109b757fe5b0160006101000a81548173ffffffffffffffffffffffffffffffffffffffff021916908373ffffffffffffffffffffffffffffffffffffffff160217905550819050919050565b3373ffffffffffffffffffffffffffffffffffffffff1660008281548110610a2257fe5b906000526020600020906005020160040160009054906101000a900473ffffffffffffffffffffffffffffffffffffffff1673ffffffffffffffffffffffffffffffffffffffff1614610a7457600080fd5b60008181548110610a8157fe5b9060005260206000209060050201600080820160009055600182016000610aa89190610c3f565b6002820160006101000a81549060ff021916905560038201600090556004820160006101000a81549073ffffffffffffffffffffffffffffffffffffffff0219169055505050565b60006040518060a001604052806001548152602001838152602001600015158152602001600081526020013373ffffffffffffffffffffffffffffffffffffffff1681525090806001815401808255809150509060018203906000526020600020906005020160009091929091909150600082015181600001556020820151816001019080519060200190610b86929190610c87565b5060408201518160020160006101000a81548160ff0219169083151502179055506060820151816003015560808201518160040160006101000a81548173ffffffffffffffffffffffffffffffffffffffff021916908373ffffffffffffffffffffffffffffffffffffffff16021790555050505060016000815480929190600101919050555050565b60008080549050905090565b604051806102000160405280601090602082028038833980820191505090505090565b50805460018160011615610100020316600290046000825580601f10610c655750610c84565b601f016020900490600052602060002090810190610c839190610d07565b5b50565b828054600181600116156101000203166002900490600052602060002090601f016020900481019282601f10610cc857805160ff1916838001178555610cf6565b82800160010185558215610cf6579182015b82811115610cf5578251825591602001919060010190610cda565b5b509050610d039190610d07565b5090565b610d2991905b80821115610d25576000816000905550600101610d0d565b5090565b9056fea265627a7a723158205302af80541dec75eae08f98a7f28e244fd75d90416283b9cce34d6d2c58fb0964736f6c63430005100032",
  "source": "pragma solidity ^0.5.0;\n\ncontract Adoption {\n  struct Artwork{\n        uint id;\n        string url;\n        bool onSale;\n        uint price;\n        address owner;\n  }\n\n  Artwork[] public artworks;\n  uint public nextId;\n\n  address[16] public adopters;\n\n  function create(string memory url) public {\n      artworks.push(Artwork(nextId, url, false, 0, msg.sender));\n      nextId++;\n  }\n\n  function getArtwork(uint id) public view returns (uint, string memory, bool, uint, address){\n    for(uint i = 0; i < artworks.length; i++){\n      if(artworks[i].id == id){\n        return (artworks[i].id, artworks[i].url, artworks[i].onSale, artworks[i].price, artworks[i].owner);\n      }\n    }\n  }\n\n  function sellArtwork(uint id, uint price) public {\n    require(artworks[id].owner == msg.sender);\n    \n    for(uint i = 0; i < artworks.length; i++){\n      if(artworks[i].id == id){\n        artworks[i].onSale = true;\n        artworks[i].price = price;\n        return;\n      }\n    }\n  }\n\n  function destroy(uint id) public{\n      require(artworks[id].owner == msg.sender);\n      delete artworks[id];\n  }\n\n  function getTotalArtworks() public view returns (uint256 length){\n      return artworks.length;\n   }\n\n  // Adopting a pet\n  function adopt(uint petId) public returns (uint) {\n    require(petId >= 0 && petId <= 15);\n\n    adopters[petId] = msg.sender;\n\n    return petId;\n  }\n\n  // Retrieving the adopters\n  function getAdopters() public view returns (address[16] memory) {\n    return adopters;\n  }\n}\n",
  "sourcePath": "/Users/julius/Documents/GitHub/pet-shop-tutorial/contracts/Adoption.sol",
  "compiler": {
    "name": "solc",
    "version": "0.5.16+commit.9c3226ce.Emscripten.clang"
  },
  "schemaVersion": "3.4.3",
  "updatedAt": "2021-11-27T16:42:47.430Z",
  "devdoc": {
    "methods": {}
  },
  "userdoc": {
    "methods": {}
  }
}