{
  "contractName": "ArtworkStore",
  "abi": [
    {
      "constant": true,
      "inputs": [
        {
          "internalType": "uint256",
          "name": "",
          "type": "uint256"
        }
      ],
      "name": "artworks",
      "outputs": [
        {
          "internalType": "uint256",
          "name": "id",
          "type": "uint256"
        },
        {
          "internalType": "string",
          "name": "name",
          "type": "string"
        },
        {
          "internalType": "string",
          "name": "url",
          "type": "string"
        },
        {
          "internalType": "bool",
          "name": "onSale",
          "type": "bool"
        },
        {
          "internalType": "uint256",
          "name": "price",
          "type": "uint256"
        },
        {
          "internalType": "address",
          "name": "owner",
          "type": "address"
        }
      ],
      "payable": false,
      "stateMutability": "view",
      "type": "function"
    },
    {
      "constant": true,
      "inputs": [],
      "name": "nextId",
      "outputs": [
        {
          "internalType": "uint256",
          "name": "",
          "type": "uint256"
        }
      ],
      "payable": false,
      "stateMutability": "view",
      "type": "function"
    },
    {
      "constant": false,
      "inputs": [
        {
          "internalType": "string",
          "name": "name",
          "type": "string"
        },
        {
          "internalType": "string",
          "name": "url",
          "type": "string"
        }
      ],
      "name": "create",
      "outputs": [],
      "payable": false,
      "stateMutability": "nonpayable",
      "type": "function"
    },
    {
      "constant": true,
      "inputs": [
        {
          "internalType": "uint256",
          "name": "id",
          "type": "uint256"
        }
      ],
      "name": "getArtwork",
      "outputs": [
        {
          "internalType": "uint256",
          "name": "",
          "type": "uint256"
        },
        {
          "internalType": "string",
          "name": "",
          "type": "string"
        },
        {
          "internalType": "string",
          "name": "",
          "type": "string"
        },
        {
          "internalType": "bool",
          "name": "",
          "type": "bool"
        },
        {
          "internalType": "uint256",
          "name": "",
          "type": "uint256"
        },
        {
          "internalType": "address",
          "name": "",
          "type": "address"
        }
      ],
      "payable": false,
      "stateMutability": "view",
      "type": "function"
    },
    {
      "constant": false,
      "inputs": [
        {
          "internalType": "uint256",
          "name": "id",
          "type": "uint256"
        },
        {
          "internalType": "uint256",
          "name": "price",
          "type": "uint256"
        }
      ],
      "name": "sellArtwork",
      "outputs": [],
      "payable": false,
      "stateMutability": "nonpayable",
      "type": "function"
    },
    {
      "constant": false,
      "inputs": [
        {
          "internalType": "uint256",
          "name": "id",
          "type": "uint256"
        }
      ],
      "name": "destroy",
      "outputs": [],
      "payable": false,
      "stateMutability": "nonpayable",
      "type": "function"
    },
    {
      "constant": true,
      "inputs": [],
      "name": "getTotalArtworks",
      "outputs": [
        {
          "internalType": "uint256",
          "name": "length",
          "type": "uint256"
        }
      ],
      "payable": false,
      "stateMutability": "view",
      "type": "function"
    }
  ],
  "bytecode": "0x608060405234801561001057600080fd5b50610e00806100206000396000f3fe608060405234801561001057600080fd5b506004361061007d5760003560e01c806361b8ce8c1161005b57806361b8ce8c146104925780636e34883d146104b05780639d118770146104e8578063d3395790146105165761007d565b8063167ddf6e14610082578063198e2b8a146101e15780634b60267314610333575b600080fd5b6100ae6004803603602081101561009857600080fd5b8101908080359060200190929190505050610534565b604051808781526020018060200180602001861515151581526020018581526020018473ffffffffffffffffffffffffffffffffffffffff1673ffffffffffffffffffffffffffffffffffffffff168152602001838103835288818151815260200191508051906020019080838360005b8381101561013a57808201518184015260208101905061011f565b50505050905090810190601f1680156101675780820380516001836020036101000a031916815260200191505b50838103825287818151815260200191508051906020019080838360005b838110156101a0578082015181840152602081019050610185565b50505050905090810190601f1680156101cd5780820380516001836020036101000a031916815260200191505b509850505050505050505060405180910390f35b610331600480360360408110156101f757600080fd5b810190808035906020019064010000000081111561021457600080fd5b82018360208201111561022657600080fd5b8035906020019184600183028401116401000000008311171561024857600080fd5b91908080601f016020809104026020016040519081016040528093929190818152602001838380828437600081840152601f19601f820116905080830192505050505050509192919290803590602001906401000000008111156102ab57600080fd5b8201836020820111156102bd57600080fd5b803590602001918460018302840111640100000000831117156102df57600080fd5b91908080601f016020809104026020016040519081016040528093929190818152602001838380828437600081840152601f19601f8201169050808301925050505050505091929192905050506107be565b005b61035f6004803603602081101561034957600080fd5b8101908080359060200190929190505050610902565b604051808781526020018060200180602001861515151581526020018581526020018473ffffffffffffffffffffffffffffffffffffffff1673ffffffffffffffffffffffffffffffffffffffff168152602001838103835288818151815260200191508051906020019080838360005b838110156103eb5780820151818401526020810190506103d0565b50505050905090810190601f1680156104185780820380516001836020036101000a031916815260200191505b50838103825287818151815260200191508051906020019080838360005b83811015610451578082015181840152602081019050610436565b50505050905090810190601f16801561047e5780820380516001836020036101000a031916815260200191505b509850505050505050505060405180910390f35b61049a610aa8565b6040518082815260200191505060405180910390f35b6104e6600480360360408110156104c657600080fd5b810190808035906020019092919080359060200190929190505050610aae565b005b610514600480360360208110156104fe57600080fd5b8101908080359060200190929190505050610bd0565b005b61051e610cd2565b6040518082815260200191505060405180910390f35b6000606080600080600080600090505b6000805490508110156107b357876000828154811061055f57fe5b90600052602060002090600602016000015414156107a6576000818154811061058457fe5b906000526020600020906006020160000154600082815481106105a357fe5b9060005260206000209060060201600101600083815481106105c157fe5b9060005260206000209060060201600201600084815481106105df57fe5b906000526020600020906006020160030160009054906101000a900460ff166000858154811061060b57fe5b9060005260206000209060060201600401546000868154811061062a57fe5b906000526020600020906006020160050160009054906101000a900473ffffffffffffffffffffffffffffffffffffffff16848054600181600116156101000203166002900480601f0160208091040260200160405190810160405280929190818152602001828054600181600116156101000203166002900480156106f15780601f106106c6576101008083540402835291602001916106f1565b820191906000526020600020905b8154815290600101906020018083116106d457829003601f168201915b50505050509450838054600181600116156101000203166002900480601f01602080910402602001604051908101604052809291908181526020018280546001816001161561010002031660029004801561078d5780601f106107625761010080835404028352916020019161078d565b820191906000526020600020905b81548152906001019060200180831161077057829003601f168201915b50505050509350965096509650965096509650506107b5565b8080600101915050610544565b505b91939550919395565b60006040518060c001604052806001548152602001848152602001838152602001600015158152602001600081526020013373ffffffffffffffffffffffffffffffffffffffff168152509080600181540180825580915050906001820390600052602060002090600602016000909192909190915060008201518160000155602082015181600101908051906020019061085a929190610cde565b506040820151816002019080519060200190610877929190610cde565b5060608201518160030160006101000a81548160ff0219169083151502179055506080820151816004015560a08201518160050160006101000a81548173ffffffffffffffffffffffffffffffffffffffff021916908373ffffffffffffffffffffffffffffffffffffffff1602179055505050506001600081548092919060010191905055505050565b6000818154811061090f57fe5b9060005260206000209060060201600091509050806000015490806001018054600181600116156101000203166002900480601f0160208091040260200160405190810160405280929190818152602001828054600181600116156101000203166002900480156109c15780601f10610996576101008083540402835291602001916109c1565b820191906000526020600020905b8154815290600101906020018083116109a457829003601f168201915b505050505090806002018054600181600116156101000203166002900480601f016020809104026020016040519081016040528092919081815260200182805460018160011615610100020316600290048015610a5f5780601f10610a3457610100808354040283529160200191610a5f565b820191906000526020600020905b815481529060010190602001808311610a4257829003601f168201915b5050505050908060030160009054906101000a900460ff16908060040154908060050160009054906101000a900473ffffffffffffffffffffffffffffffffffffffff16905086565b60015481565b3373ffffffffffffffffffffffffffffffffffffffff1660008381548110610ad257fe5b906000526020600020906006020160050160009054906101000a900473ffffffffffffffffffffffffffffffffffffffff1673ffffffffffffffffffffffffffffffffffffffff1614610b2457600080fd5b60008090505b600080549050811015610bca578260008281548110610b4557fe5b9060005260206000209060060201600001541415610bbd57600160008281548110610b6c57fe5b906000526020600020906006020160030160006101000a81548160ff0219169083151502179055508160008281548110610ba257fe5b90600052602060002090600602016004018190555050610bcc565b8080600101915050610b2a565b505b5050565b3373ffffffffffffffffffffffffffffffffffffffff1660008281548110610bf457fe5b906000526020600020906006020160050160009054906101000a900473ffffffffffffffffffffffffffffffffffffffff1673ffffffffffffffffffffffffffffffffffffffff1614610c4657600080fd5b60008181548110610c5357fe5b9060005260206000209060060201600080820160009055600182016000610c7a9190610d5e565b600282016000610c8a9190610d5e565b6003820160006101000a81549060ff021916905560048201600090556005820160006101000a81549073ffffffffffffffffffffffffffffffffffffffff0219169055505050565b60008080549050905090565b828054600181600116156101000203166002900490600052602060002090601f016020900481019282601f10610d1f57805160ff1916838001178555610d4d565b82800160010185558215610d4d579182015b82811115610d4c578251825591602001919060010190610d31565b5b509050610d5a9190610da6565b5090565b50805460018160011615610100020316600290046000825580601f10610d845750610da3565b601f016020900490600052602060002090810190610da29190610da6565b5b50565b610dc891905b80821115610dc4576000816000905550600101610dac565b5090565b9056fea265627a7a723158206dfcb5d287d0f779afa287b54b7d4fee7117a51428abd8cc4836413cc76a948b64736f6c63430005100032",
  "source": "pragma solidity ^0.5.0;\n\ncontract ArtworkStore {\n  struct Artwork{\n        uint id;\n        string name;\n        string url;\n        bool onSale;\n        uint price;\n        address owner;\n  }\n\n  Artwork[] public artworks;\n  uint public nextId;\n\n  function create(string memory name, string memory url) public {\n      artworks.push(Artwork(nextId, name, url, false, 0, msg.sender));\n      nextId++;\n  }\n\n  function getArtwork(uint id) public view returns (uint, string memory, string memory, bool, uint, address){\n    for(uint i = 0; i < artworks.length; i++){\n      if(artworks[i].id == id){\n        return (artworks[i].id, artworks[i].name, artworks[i].url, artworks[i].onSale, artworks[i].price, artworks[i].owner);\n      }\n    }\n  }\n\n  function sellArtwork(uint id, uint price) public {\n    require(artworks[id].owner == msg.sender);\n    \n    for(uint i = 0; i < artworks.length; i++){\n      if(artworks[i].id == id){\n        artworks[i].onSale = true;\n        artworks[i].price = price;\n        return;\n      }\n    }\n  }\n\n  function destroy(uint id) public{\n      require(artworks[id].owner == msg.sender);\n      delete artworks[id];\n  }\n\n  function getTotalArtworks() public view returns (uint256 length){\n      return artworks.length;\n   }\n}\n",
  "sourcePath": "/Users/julius/Documents/GitHub/pet-shop-tutorial/contracts/ArtworkStore.sol",
  "compiler": {
    "name": "solc",
    "version": "0.5.16+commit.9c3226ce.Emscripten.clang"
  },
  "schemaVersion": "3.4.3",
  "updatedAt": "2021-11-28T10:47:06.216Z",
  "networkType": "ethereum",
  "devdoc": {
    "methods": {}
  },
  "userdoc": {
    "methods": {}
  }
}