{
  "contractName": "ArtworkStore",
  "abi": [
    {
      "constant": true,
      "inputs": [
        {
          "internalType": "uint256",
          "name": "",
          "type": "uint256"
        }
      ],
      "name": "artworks",
      "outputs": [
        {
          "internalType": "uint256",
          "name": "id",
          "type": "uint256"
        },
        {
          "internalType": "string",
          "name": "name",
          "type": "string"
        },
        {
          "internalType": "string",
          "name": "url",
          "type": "string"
        },
        {
          "internalType": "bool",
          "name": "onSale",
          "type": "bool"
        },
        {
          "internalType": "uint256",
          "name": "price",
          "type": "uint256"
        },
        {
          "internalType": "address payable",
          "name": "owner",
          "type": "address"
        }
      ],
      "payable": false,
      "stateMutability": "view",
      "type": "function"
    },
    {
      "constant": true,
      "inputs": [],
      "name": "nextId",
      "outputs": [
        {
          "internalType": "uint256",
          "name": "",
          "type": "uint256"
        }
      ],
      "payable": false,
      "stateMutability": "view",
      "type": "function"
    },
    {
      "constant": false,
      "inputs": [
        {
          "internalType": "string",
          "name": "name",
          "type": "string"
        },
        {
          "internalType": "string",
          "name": "url",
          "type": "string"
        }
      ],
      "name": "create",
      "outputs": [],
      "payable": false,
      "stateMutability": "nonpayable",
      "type": "function"
    },
    {
      "constant": true,
      "inputs": [
        {
          "internalType": "uint256",
          "name": "id",
          "type": "uint256"
        }
      ],
      "name": "getArtwork",
      "outputs": [
        {
          "internalType": "uint256",
          "name": "",
          "type": "uint256"
        },
        {
          "internalType": "string",
          "name": "",
          "type": "string"
        },
        {
          "internalType": "string",
          "name": "",
          "type": "string"
        },
        {
          "internalType": "bool",
          "name": "",
          "type": "bool"
        },
        {
          "internalType": "uint256",
          "name": "",
          "type": "uint256"
        },
        {
          "internalType": "address",
          "name": "",
          "type": "address"
        }
      ],
      "payable": false,
      "stateMutability": "view",
      "type": "function"
    },
    {
      "constant": false,
      "inputs": [
        {
          "internalType": "uint256",
          "name": "id",
          "type": "uint256"
        },
        {
          "internalType": "uint256",
          "name": "price",
          "type": "uint256"
        }
      ],
      "name": "sellArtwork",
      "outputs": [],
      "payable": false,
      "stateMutability": "nonpayable",
      "type": "function"
    },
    {
      "constant": false,
      "inputs": [
        {
          "internalType": "uint256",
          "name": "id",
          "type": "uint256"
        }
      ],
      "name": "purchaseArtwork",
      "outputs": [],
      "payable": true,
      "stateMutability": "payable",
      "type": "function"
    },
    {
      "constant": false,
      "inputs": [
        {
          "internalType": "uint256",
          "name": "id",
          "type": "uint256"
        }
      ],
      "name": "destroy",
      "outputs": [],
      "payable": false,
      "stateMutability": "nonpayable",
      "type": "function"
    },
    {
      "constant": true,
      "inputs": [],
      "name": "getTotalArtworks",
      "outputs": [
        {
          "internalType": "uint256",
          "name": "length",
          "type": "uint256"
        }
      ],
      "payable": false,
      "stateMutability": "view",
      "type": "function"
    }
  ],
  "bytecode": "0x608060405234801561001057600080fd5b50611087806100206000396000f3fe60806040526004361061007b5760003560e01c806361b8ce8c1161004e57806361b8ce8c146104e55780636e34883d146105105780639d11877014610555578063d3395790146105905761007b565b80631287fb9214610080578063167ddf6e146100ae578063198e2b8a1461021a5780634b60267314610379575b600080fd5b6100ac6004803603602081101561009657600080fd5b81019080803590602001909291905050506105bb565b005b3480156100ba57600080fd5b506100e7600480360360208110156100d157600080fd5b81019080803590602001909291905050506107b8565b604051808781526020018060200180602001861515151581526020018581526020018473ffffffffffffffffffffffffffffffffffffffff1673ffffffffffffffffffffffffffffffffffffffff168152602001838103835288818151815260200191508051906020019080838360005b83811015610173578082015181840152602081019050610158565b50505050905090810190601f1680156101a05780820380516001836020036101000a031916815260200191505b50838103825287818151815260200191508051906020019080838360005b838110156101d95780820151818401526020810190506101be565b50505050905090810190601f1680156102065780820380516001836020036101000a031916815260200191505b509850505050505050505060405180910390f35b34801561022657600080fd5b506103776004803603604081101561023d57600080fd5b810190808035906020019064010000000081111561025a57600080fd5b82018360208201111561026c57600080fd5b8035906020019184600183028401116401000000008311171561028e57600080fd5b91908080601f016020809104026020016040519081016040528093929190818152602001838380828437600081840152601f19601f820116905080830192505050505050509192919290803590602001906401000000008111156102f157600080fd5b82018360208201111561030357600080fd5b8035906020019184600183028401116401000000008311171561032557600080fd5b91908080601f016020809104026020016040519081016040528093929190818152602001838380828437600081840152601f19601f820116905080830192505050505050509192919290505050610a45565b005b34801561038557600080fd5b506103b26004803603602081101561039c57600080fd5b8101908080359060200190929190505050610b89565b604051808781526020018060200180602001861515151581526020018581526020018473ffffffffffffffffffffffffffffffffffffffff1673ffffffffffffffffffffffffffffffffffffffff168152602001838103835288818151815260200191508051906020019080838360005b8381101561043e578082015181840152602081019050610423565b50505050905090810190601f16801561046b5780820380516001836020036101000a031916815260200191505b50838103825287818151815260200191508051906020019080838360005b838110156104a4578082015181840152602081019050610489565b50505050905090810190601f1680156104d15780820380516001836020036101000a031916815260200191505b509850505050505050505060405180910390f35b3480156104f157600080fd5b506104fa610d2f565b6040518082815260200191505060405180910390f35b34801561051c57600080fd5b506105536004803603604081101561053357600080fd5b810190808035906020019092919080359060200190929190505050610d35565b005b34801561056157600080fd5b5061058e6004803603602081101561057857600080fd5b8101908080359060200190929190505050610e57565b005b34801561059c57600080fd5b506105a5610f59565b6040518082815260200191505060405180910390f35b34670de0b6b3a7640000600083815481106105d257fe5b9060005260206000209060060201600401540211156105f057600080fd5b600115156000828154811061060157fe5b906000526020600020906006020160030160009054906101000a900460ff1615151461062c57600080fd5b6000818154811061063957fe5b906000526020600020906006020160050160009054906101000a900473ffffffffffffffffffffffffffffffffffffffff1673ffffffffffffffffffffffffffffffffffffffff166108fc349081150290604051600060405180830381858888f193505050501580156106b0573d6000803e3d6000fd5b5060008090505b6000805490508110156107b35781600082815481106106d257fe5b90600052602060002090600602016000015414156107a65733600082815481106106f857fe5b906000526020600020906006020160050160006101000a81548173ffffffffffffffffffffffffffffffffffffffff021916908373ffffffffffffffffffffffffffffffffffffffff160217905550600080828154811061075557fe5b906000526020600020906006020160030160006101000a81548160ff021916908315150217905550600080828154811061078b57fe5b906000526020600020906006020160040181905550506107b5565b80806001019150506106b7565b505b50565b6000606080600080600080600090505b600080549050811015610a3a5787600082815481106107e357fe5b9060005260206000209060060201600001541415610a2d576000818154811061080857fe5b9060005260206000209060060201600001546000828154811061082757fe5b90600052602060002090600602016001016000838154811061084557fe5b90600052602060002090600602016002016000848154811061086357fe5b906000526020600020906006020160030160009054906101000a900460ff166000858154811061088f57fe5b906000526020600020906006020160040154600086815481106108ae57fe5b906000526020600020906006020160050160009054906101000a900473ffffffffffffffffffffffffffffffffffffffff16848054600181600116156101000203166002900480601f0160208091040260200160405190810160405280929190818152602001828054600181600116156101000203166002900480156109755780601f1061094a57610100808354040283529160200191610975565b820191906000526020600020905b81548152906001019060200180831161095857829003601f168201915b50505050509450838054600181600116156101000203166002900480601f016020809104026020016040519081016040528092919081815260200182805460018160011615610100020316600290048015610a115780601f106109e657610100808354040283529160200191610a11565b820191906000526020600020905b8154815290600101906020018083116109f457829003601f168201915b5050505050935080905096509650965096509650965050610a3c565b80806001019150506107c8565b505b91939550919395565b60006040518060c001604052806001548152602001848152602001838152602001600015158152602001600081526020013373ffffffffffffffffffffffffffffffffffffffff1681525090806001815401808255809150509060018203906000526020600020906006020160009091929091909150600082015181600001556020820151816001019080519060200190610ae1929190610f65565b506040820151816002019080519060200190610afe929190610f65565b5060608201518160030160006101000a81548160ff0219169083151502179055506080820151816004015560a08201518160050160006101000a81548173ffffffffffffffffffffffffffffffffffffffff021916908373ffffffffffffffffffffffffffffffffffffffff1602179055505050506001600081548092919060010191905055505050565b60008181548110610b9657fe5b9060005260206000209060060201600091509050806000015490806001018054600181600116156101000203166002900480601f016020809104026020016040519081016040528092919081815260200182805460018160011615610100020316600290048015610c485780601f10610c1d57610100808354040283529160200191610c48565b820191906000526020600020905b815481529060010190602001808311610c2b57829003601f168201915b505050505090806002018054600181600116156101000203166002900480601f016020809104026020016040519081016040528092919081815260200182805460018160011615610100020316600290048015610ce65780601f10610cbb57610100808354040283529160200191610ce6565b820191906000526020600020905b815481529060010190602001808311610cc957829003601f168201915b5050505050908060030160009054906101000a900460ff16908060040154908060050160009054906101000a900473ffffffffffffffffffffffffffffffffffffffff16905086565b60015481565b3373ffffffffffffffffffffffffffffffffffffffff1660008381548110610d5957fe5b906000526020600020906006020160050160009054906101000a900473ffffffffffffffffffffffffffffffffffffffff1673ffffffffffffffffffffffffffffffffffffffff1614610dab57600080fd5b60008090505b600080549050811015610e51578260008281548110610dcc57fe5b9060005260206000209060060201600001541415610e4457600160008281548110610df357fe5b906000526020600020906006020160030160006101000a81548160ff0219169083151502179055508160008281548110610e2957fe5b90600052602060002090600602016004018190555050610e53565b8080600101915050610db1565b505b5050565b3373ffffffffffffffffffffffffffffffffffffffff1660008281548110610e7b57fe5b906000526020600020906006020160050160009054906101000a900473ffffffffffffffffffffffffffffffffffffffff1673ffffffffffffffffffffffffffffffffffffffff1614610ecd57600080fd5b60008181548110610eda57fe5b9060005260206000209060060201600080820160009055600182016000610f019190610fe5565b600282016000610f119190610fe5565b6003820160006101000a81549060ff021916905560048201600090556005820160006101000a81549073ffffffffffffffffffffffffffffffffffffffff0219169055505050565b60008080549050905090565b828054600181600116156101000203166002900490600052602060002090601f016020900481019282601f10610fa657805160ff1916838001178555610fd4565b82800160010185558215610fd4579182015b82811115610fd3578251825591602001919060010190610fb8565b5b509050610fe1919061102d565b5090565b50805460018160011615610100020316600290046000825580601f1061100b575061102a565b601f016020900490600052602060002090810190611029919061102d565b5b50565b61104f91905b8082111561104b576000816000905550600101611033565b5090565b9056fea265627a7a7231582009aa6ca8ecc89ca093bffc74f2350c5b796032551c96e4e10fe133713cfadc8164736f6c63430005100032",
  "source": "pragma solidity ^0.5.0;\n\ncontract ArtworkStore {\n  struct Artwork{\n        uint id;\n        string name;\n        string url;\n        bool onSale;\n        uint price;\n        address payable owner;\n  }\n\n  Artwork[] public artworks;\n  uint public nextId;\n\n  function create(string memory name, string memory url) public {\n      artworks.push(Artwork(nextId, name, url, false, 0, msg.sender));\n      nextId++;\n  }\n\n  function getArtwork(uint id) public view returns (uint, string memory, string memory, bool, uint, address){\n    for(uint i = 0; i < artworks.length; i++){\n      if(artworks[i].id == id){\n        return (artworks[i].id, artworks[i].name, artworks[i].url, artworks[i].onSale, artworks[i].price, artworks[i].owner);\n      }\n    }\n  }\n\n  function sellArtwork(uint id, uint price) public {\n    require(artworks[id].owner == msg.sender);\n    \n    for(uint i = 0; i < artworks.length; i++){\n      if(artworks[i].id == id){\n        artworks[i].onSale = true;\n        artworks[i].price = price;\n        return;\n      }\n    }\n  }\n\n  function purchaseArtwork(uint id) public payable {\n    require(artworks[id].price * 1 ether <= msg.value);\n    require(artworks[id].onSale == true);\n\n    // transfer ethereum\n    // DOESN'T WORK\n    address(artworks[id].owner).transfer(msg.value);\n\n    // transfer ownership\n    for(uint i = 0; i < artworks.length; i++){\n      if (artworks[i].id == id) {\n        artworks[i].owner = msg.sender;\n        artworks[i].onSale = false;\n        artworks[i].price = 0;\n        return;\n      }\n    }\n  }\n\n  function destroy(uint id) public{\n      require(artworks[id].owner == msg.sender);\n      delete artworks[id];\n  }\n\n  function getTotalArtworks() public view returns (uint256 length){\n      return artworks.length;\n   }\n}\n",
  "sourcePath": "/Users/julius/Documents/GitHub/pet-shop-tutorial/contracts/ArtworkStore.sol",
  "compiler": {
    "name": "solc",
    "version": "0.5.16+commit.9c3226ce.Emscripten.clang"
  },
  "schemaVersion": "3.4.3",
  "updatedAt": "2021-12-01T12:45:27.318Z",
  "devdoc": {
    "methods": {}
  },
  "userdoc": {
    "methods": {}
  }
}